{
  "_format": "hh-sol-artifact-1",
  "contractName": "Epocket",
  "sourceName": "contracts/Epocket.sol",
  "abi": [
    {
      "inputs": [],
      "stateMutability": "nonpayable",
      "type": "constructor"
    },
    {
      "inputs": [],
      "name": "Epocket__TransferFailed",
      "type": "error"
    },
    {
      "anonymous": false,
      "inputs": [
        {
          "indexed": true,
          "internalType": "address",
          "name": "recipientOf",
          "type": "address"
        },
        {
          "indexed": false,
          "internalType": "address",
          "name": "recipient",
          "type": "address"
        },
        {
          "indexed": false,
          "internalType": "string",
          "name": "recipientName",
          "type": "string"
        }
      ],
      "name": "recipeintTx",
      "type": "event"
    },
    {
      "anonymous": false,
      "inputs": [
        {
          "indexed": true,
          "internalType": "address",
          "name": "from",
          "type": "address"
        },
        {
          "indexed": false,
          "internalType": "address",
          "name": "to",
          "type": "address"
        },
        {
          "indexed": false,
          "internalType": "uint256",
          "name": "amount",
          "type": "uint256"
        },
        {
          "indexed": false,
          "internalType": "string",
          "name": "symbol",
          "type": "string"
        }
      ],
      "name": "transctions",
      "type": "event"
    },
    {
      "inputs": [
        {
          "internalType": "address payable",
          "name": "_to",
          "type": "address"
        },
        {
          "internalType": "string",
          "name": "symbol",
          "type": "string"
        }
      ],
      "name": "_transfer",
      "outputs": [],
      "stateMutability": "payable",
      "type": "function"
    },
    {
      "inputs": [
        {
          "internalType": "address",
          "name": "recipient",
          "type": "address"
        },
        {
          "internalType": "string",
          "name": "name",
          "type": "string"
        }
      ],
      "name": "addRecipeint",
      "outputs": [],
      "stateMutability": "nonpayable",
      "type": "function"
    },
    {
      "inputs": [],
      "name": "getAllContracTxs",
      "outputs": [
        {
          "components": [
            {
              "internalType": "address",
              "name": "from",
              "type": "address"
            },
            {
              "internalType": "address",
              "name": "reciever",
              "type": "address"
            },
            {
              "internalType": "uint256",
              "name": "timestamp",
              "type": "uint256"
            },
            {
              "internalType": "uint256",
              "name": "amount",
              "type": "uint256"
            }
          ],
          "internalType": "struct Epocket.TransactionStruct[]",
          "name": "",
          "type": "tuple[]"
        }
      ],
      "stateMutability": "view",
      "type": "function"
    },
    {
      "inputs": [],
      "name": "getBalanceAccount",
      "outputs": [
        {
          "internalType": "uint256",
          "name": "",
          "type": "uint256"
        }
      ],
      "stateMutability": "view",
      "type": "function"
    },
    {
      "inputs": [
        {
          "internalType": "address",
          "name": "",
          "type": "address"
        },
        {
          "internalType": "uint256",
          "name": "",
          "type": "uint256"
        }
      ],
      "name": "myTransactions",
      "outputs": [
        {
          "internalType": "address",
          "name": "from",
          "type": "address"
        },
        {
          "internalType": "address",
          "name": "reciever",
          "type": "address"
        },
        {
          "internalType": "uint256",
          "name": "timestamp",
          "type": "uint256"
        },
        {
          "internalType": "uint256",
          "name": "amount",
          "type": "uint256"
        }
      ],
      "stateMutability": "view",
      "type": "function"
    },
    {
      "inputs": [
        {
          "internalType": "address",
          "name": "",
          "type": "address"
        }
      ],
      "name": "s_addressToTransactionStruct",
      "outputs": [
        {
          "internalType": "address",
          "name": "from",
          "type": "address"
        },
        {
          "internalType": "address",
          "name": "reciever",
          "type": "address"
        },
        {
          "internalType": "uint256",
          "name": "timestamp",
          "type": "uint256"
        },
        {
          "internalType": "uint256",
          "name": "amount",
          "type": "uint256"
        }
      ],
      "stateMutability": "view",
      "type": "function"
    },
    {
      "inputs": [
        {
          "internalType": "address",
          "name": "from",
          "type": "address"
        },
        {
          "internalType": "address",
          "name": "to",
          "type": "address"
        },
        {
          "internalType": "uint256",
          "name": "amount",
          "type": "uint256"
        },
        {
          "internalType": "string",
          "name": "symbol",
          "type": "string"
        }
      ],
      "name": "saveTX",
      "outputs": [],
      "stateMutability": "nonpayable",
      "type": "function"
    },
    {
      "inputs": [
        {
          "internalType": "address",
          "name": "",
          "type": "address"
        }
      ],
      "name": "transactionCount",
      "outputs": [
        {
          "internalType": "uint256",
          "name": "",
          "type": "uint256"
        }
      ],
      "stateMutability": "view",
      "type": "function"
    },
    {
      "inputs": [
        {
          "internalType": "uint256",
          "name": "",
          "type": "uint256"
        }
      ],
      "name": "transactions",
      "outputs": [
        {
          "internalType": "address",
          "name": "from",
          "type": "address"
        },
        {
          "internalType": "address",
          "name": "reciever",
          "type": "address"
        },
        {
          "internalType": "uint256",
          "name": "timestamp",
          "type": "uint256"
        },
        {
          "internalType": "uint256",
          "name": "amount",
          "type": "uint256"
        }
      ],
      "stateMutability": "view",
      "type": "function"
    }
  ],
  "bytecode": "0x60a060405234801561001057600080fd5b503373ffffffffffffffffffffffffffffffffffffffff1660808173ffffffffffffffffffffffffffffffffffffffff1660601b8152505060805160601c61138f61006660003960006102b1015261138f6000f3fe6080604052600436106100865760003560e01c80633b44da49116100595780633b44da491461013b578063932446811461017b57806399be3375146101a45780639ace38c2146101e1578063abf038d01461022157610086565b80631b7b03451461008b578063266d910d146100a757806331b9a53b146100e7578063374fcb6814610110575b600080fd5b6100a560048036038101906100a09190610ae1565b61024c565b005b3480156100b357600080fd5b506100ce60048036038101906100c99190610ab4565b6105ee565b6040516100de9493929190610e71565b60405180910390f35b3480156100f357600080fd5b5061010e60048036038101906101099190610b3d565b61065e565b005b34801561011c57600080fd5b506101256106b6565b6040516101329190610f24565b60405180910390f35b34801561014757600080fd5b50610162600480360381019061015d9190610c1c565b6107d5565b6040516101729493929190610e71565b60405180910390f35b34801561018757600080fd5b506101a2600480360381019061019d9190610bc0565b610852565b005b3480156101b057600080fd5b506101cb60048036038101906101c69190610ab4565b6108a6565b6040516101d89190610f66565b60405180910390f35b3480156101ed57600080fd5b5061020860048036038101906102039190610c5c565b6108be565b6040516102189493929190610e71565b60405180910390f35b34801561022d57600080fd5b5061023661093e565b6040516102439190610f66565b60405180910390f35b6000341161028f576040517f08c379a000000000000000000000000000000000000000000000000000000000815260040161028690610f46565b60405180910390fd5b600060646005346102a09190611068565b6102aa9190611037565b90506102d67f00000000000000000000000000000000000000000000000000000000000000008261095d565b6102eb8382346102e691906110c2565b61095d565b600060405180608001604052803373ffffffffffffffffffffffffffffffffffffffff1681526020018573ffffffffffffffffffffffffffffffffffffffff168152602001428152602001348152509050600260003373ffffffffffffffffffffffffffffffffffffffff1673ffffffffffffffffffffffffffffffffffffffff168152602001908152602001600020600081548092919061038c906111ed565b919050555080600160003373ffffffffffffffffffffffffffffffffffffffff1673ffffffffffffffffffffffffffffffffffffffff1681526020019081526020016000206000600260003373ffffffffffffffffffffffffffffffffffffffff1673ffffffffffffffffffffffffffffffffffffffff16815260200190815260200160002054815260200190815260200160002060008201518160000160006101000a81548173ffffffffffffffffffffffffffffffffffffffff021916908373ffffffffffffffffffffffffffffffffffffffff16021790555060208201518160010160006101000a81548173ffffffffffffffffffffffffffffffffffffffff021916908373ffffffffffffffffffffffffffffffffffffffff1602179055506040820151816002015560608201518160030155905050600381908060018154018082558091505060019003906000526020600020906004020160009091909190915060008201518160000160006101000a81548173ffffffffffffffffffffffffffffffffffffffff021916908373ffffffffffffffffffffffffffffffffffffffff16021790555060208201518160010160006101000a81548173ffffffffffffffffffffffffffffffffffffffff021916908373ffffffffffffffffffffffffffffffffffffffff160217905550604082015181600201556060820151816003015550503373ffffffffffffffffffffffffffffffffffffffff167f3229aa49556050e19062e5c4b9f040143e8a58c92c68346bc82b8e534b2e3aa98534866040516105e093929190610e33565b60405180910390a250505050565b60006020528060005260406000206000915090508060000160009054906101000a900473ffffffffffffffffffffffffffffffffffffffff16908060010160009054906101000a900473ffffffffffffffffffffffffffffffffffffffff16908060020154908060030154905084565b8373ffffffffffffffffffffffffffffffffffffffff167f3229aa49556050e19062e5c4b9f040143e8a58c92c68346bc82b8e534b2e3aa98484846040516106a893929190610ee6565b60405180910390a250505050565b60606003805480602002602001604051908101604052809291908181526020016000905b828210156107cc57838290600052602060002090600402016040518060800160405290816000820160009054906101000a900473ffffffffffffffffffffffffffffffffffffffff1673ffffffffffffffffffffffffffffffffffffffff1673ffffffffffffffffffffffffffffffffffffffff1681526020016001820160009054906101000a900473ffffffffffffffffffffffffffffffffffffffff1673ffffffffffffffffffffffffffffffffffffffff1673ffffffffffffffffffffffffffffffffffffffff16815260200160028201548152602001600382015481525050815260200190600101906106da565b50505050905090565b6001602052816000526040600020602052806000526040600020600091509150508060000160009054906101000a900473ffffffffffffffffffffffffffffffffffffffff16908060010160009054906101000a900473ffffffffffffffffffffffffffffffffffffffff16908060020154908060030154905084565b3373ffffffffffffffffffffffffffffffffffffffff167f2aa30c14aaa4177c21d484129b061f34025468af2ad4b1abf07e8a4d10891ca4838360405161089a929190610eb6565b60405180910390a25050565b60026020528060005260406000206000915090505481565b600381815481106108ce57600080fd5b90600052602060002090600402016000915090508060000160009054906101000a900473ffffffffffffffffffffffffffffffffffffffff16908060010160009054906101000a900473ffffffffffffffffffffffffffffffffffffffff16908060020154908060030154905084565b60003373ffffffffffffffffffffffffffffffffffffffff1631905090565b60008273ffffffffffffffffffffffffffffffffffffffff168260405161098390610e1e565b60006040518083038185875af1925050503d80600081146109c0576040519150601f19603f3d011682016040523d82523d6000602084013e6109c5565b606091505b5050905080610a00576040517f627f8a1d00000000000000000000000000000000000000000000000000000000815260040160405180910390fd5b505050565b6000610a18610a1384610fa6565b610f81565b905082815260208101848484011115610a3457610a336112c8565b5b610a3f84828561117a565b509392505050565b600081359050610a5681611314565b92915050565b600081359050610a6b8161132b565b92915050565b600082601f830112610a8657610a856112c3565b5b8135610a96848260208601610a05565b91505092915050565b600081359050610aae81611342565b92915050565b600060208284031215610aca57610ac96112d2565b5b6000610ad884828501610a47565b91505092915050565b60008060408385031215610af857610af76112d2565b5b6000610b0685828601610a5c565b925050602083013567ffffffffffffffff811115610b2757610b266112cd565b5b610b3385828601610a71565b9150509250929050565b60008060008060808587031215610b5757610b566112d2565b5b6000610b6587828801610a47565b9450506020610b7687828801610a47565b9350506040610b8787828801610a9f565b925050606085013567ffffffffffffffff811115610ba857610ba76112cd565b5b610bb487828801610a71565b91505092959194509250565b60008060408385031215610bd757610bd66112d2565b5b6000610be585828601610a47565b925050602083013567ffffffffffffffff811115610c0657610c056112cd565b5b610c1285828601610a71565b9150509250929050565b60008060408385031215610c3357610c326112d2565b5b6000610c4185828601610a47565b9250506020610c5285828601610a9f565b9150509250929050565b600060208284031215610c7257610c716112d2565b5b6000610c8084828501610a9f565b91505092915050565b6000610c958383610dab565b60808301905092915050565b610caa81611144565b82525050565b610cb9816110f6565b82525050565b610cc8816110f6565b82525050565b6000610cd982610fe7565b610ce3818561100a565b9350610cee83610fd7565b8060005b83811015610d1f578151610d068882610c89565b9750610d1183610ffd565b925050600181019050610cf2565b5085935050505092915050565b6000610d3782610ff2565b610d418185611026565b9350610d51818560208601611189565b610d5a816112d7565b840191505092915050565b6000610d72601483611026565b9150610d7d826112e8565b602082019050919050565b6000610d9560008361101b565b9150610da082611311565b600082019050919050565b608082016000820151610dc16000850182610cb0565b506020820151610dd46020850182610cb0565b506040820151610de76040850182610e00565b506060820151610dfa6060850182610e00565b50505050565b610e098161113a565b82525050565b610e188161113a565b82525050565b6000610e2982610d88565b9150819050919050565b6000606082019050610e486000830186610ca1565b610e556020830185610e0f565b8181036040830152610e678184610d2c565b9050949350505050565b6000608082019050610e866000830187610cbf565b610e936020830186610cbf565b610ea06040830185610e0f565b610ead6060830184610e0f565b95945050505050565b6000604082019050610ecb6000830185610cbf565b8181036020830152610edd8184610d2c565b90509392505050565b6000606082019050610efb6000830186610cbf565b610f086020830185610e0f565b8181036040830152610f1a8184610d2c565b9050949350505050565b60006020820190508181036000830152610f3e8184610cce565b905092915050565b60006020820190508181036000830152610f5f81610d65565b9050919050565b6000602082019050610f7b6000830184610e0f565b92915050565b6000610f8b610f9c565b9050610f9782826111bc565b919050565b6000604051905090565b600067ffffffffffffffff821115610fc157610fc0611294565b5b610fca826112d7565b9050602081019050919050565b6000819050602082019050919050565b600081519050919050565b600081519050919050565b6000602082019050919050565b600082825260208201905092915050565b600081905092915050565b600082825260208201905092915050565b60006110428261113a565b915061104d8361113a565b92508261105d5761105c611265565b5b828204905092915050565b60006110738261113a565b915061107e8361113a565b9250817fffffffffffffffffffffffffffffffffffffffffffffffffffffffffffffffff04831182151516156110b7576110b6611236565b5b828202905092915050565b60006110cd8261113a565b91506110d88361113a565b9250828210156110eb576110ea611236565b5b828203905092915050565b60006111018261111a565b9050919050565b60006111138261111a565b9050919050565b600073ffffffffffffffffffffffffffffffffffffffff82169050919050565b6000819050919050565b600061114f82611156565b9050919050565b600061116182611168565b9050919050565b60006111738261111a565b9050919050565b82818337600083830152505050565b60005b838110156111a757808201518184015260208101905061118c565b838111156111b6576000848401525b50505050565b6111c5826112d7565b810181811067ffffffffffffffff821117156111e4576111e3611294565b5b80604052505050565b60006111f88261113a565b91507fffffffffffffffffffffffffffffffffffffffffffffffffffffffffffffffff82141561122b5761122a611236565b5b600182019050919050565b7f4e487b7100000000000000000000000000000000000000000000000000000000600052601160045260246000fd5b7f4e487b7100000000000000000000000000000000000000000000000000000000600052601260045260246000fd5b7f4e487b7100000000000000000000000000000000000000000000000000000000600052604160045260246000fd5b600080fd5b600080fd5b600080fd5b600080fd5b6000601f19601f8301169050919050565b7f596f752063616e27742073656e64203020455448000000000000000000000000600082015250565b50565b61131d816110f6565b811461132857600080fd5b50565b61133481611108565b811461133f57600080fd5b50565b61134b8161113a565b811461135657600080fd5b5056fea2646970667358221220cab38bd361aeda5d6fc99fbfb15ad3b89eac1c12239636fa6acee8fd6c97adf264736f6c63430008070033",
  "linkReferences": {},
  "deployedLinkReferences": {}
}