{
  "_format": "hh-sol-artifact-1",
  "contractName": "Epocket",
  "sourceName": "contracts/Epocket.sol",
  "abi": [
    {
      "anonymous": false,
      "inputs": [
        {
          "indexed": true,
          "internalType": "address",
          "name": "reecipientOf",
          "type": "address"
        },
        {
          "indexed": false,
          "internalType": "address",
          "name": "recipient",
          "type": "address"
        },
        {
          "indexed": false,
          "internalType": "string",
          "name": "recipientName",
          "type": "string"
        }
      ],
      "name": "recipeints",
      "type": "event"
    },
    {
      "anonymous": false,
      "inputs": [
        {
          "indexed": true,
          "internalType": "address",
          "name": "from",
          "type": "address"
        },
        {
          "indexed": false,
          "internalType": "address",
          "name": "to",
          "type": "address"
        },
        {
          "indexed": false,
          "internalType": "uint256",
          "name": "amount",
          "type": "uint256"
        },
        {
          "indexed": false,
          "internalType": "string",
          "name": "symbol",
          "type": "string"
        }
      ],
      "name": "transactionsEvent",
      "type": "event"
    },
    {
      "inputs": [
        {
          "internalType": "address payable",
          "name": "_to",
          "type": "address"
        },
        {
          "internalType": "string",
          "name": "symbol",
          "type": "string"
        }
      ],
      "name": "_transfer",
      "outputs": [],
      "stateMutability": "payable",
      "type": "function"
    },
    {
      "inputs": [
        {
          "internalType": "address",
          "name": "recipient",
          "type": "address"
        },
        {
          "internalType": "string",
          "name": "name",
          "type": "string"
        }
      ],
      "name": "addRecipient",
      "outputs": [],
      "stateMutability": "nonpayable",
      "type": "function"
    },
    {
      "inputs": [],
      "name": "getAllContracTxs",
      "outputs": [
        {
          "components": [
            {
              "internalType": "address",
              "name": "from",
              "type": "address"
            },
            {
              "internalType": "address",
              "name": "reciever",
              "type": "address"
            },
            {
              "internalType": "uint256",
              "name": "timestamp",
              "type": "uint256"
            },
            {
              "internalType": "uint256",
              "name": "amount",
              "type": "uint256"
            }
          ],
          "internalType": "struct Epocket.TransactionStruct[]",
          "name": "",
          "type": "tuple[]"
        }
      ],
      "stateMutability": "view",
      "type": "function"
    },
    {
      "inputs": [
        {
          "internalType": "address",
          "name": "",
          "type": "address"
        },
        {
          "internalType": "uint256",
          "name": "",
          "type": "uint256"
        }
      ],
      "name": "myTransactions",
      "outputs": [
        {
          "internalType": "address",
          "name": "from",
          "type": "address"
        },
        {
          "internalType": "address",
          "name": "reciever",
          "type": "address"
        },
        {
          "internalType": "uint256",
          "name": "timestamp",
          "type": "uint256"
        },
        {
          "internalType": "uint256",
          "name": "amount",
          "type": "uint256"
        }
      ],
      "stateMutability": "view",
      "type": "function"
    },
    {
      "inputs": [
        {
          "internalType": "address",
          "name": "",
          "type": "address"
        }
      ],
      "name": "s_addressToTransactionStruct",
      "outputs": [
        {
          "internalType": "address",
          "name": "from",
          "type": "address"
        },
        {
          "internalType": "address",
          "name": "reciever",
          "type": "address"
        },
        {
          "internalType": "uint256",
          "name": "timestamp",
          "type": "uint256"
        },
        {
          "internalType": "uint256",
          "name": "amount",
          "type": "uint256"
        }
      ],
      "stateMutability": "view",
      "type": "function"
    },
    {
      "inputs": [
        {
          "internalType": "address",
          "name": "from",
          "type": "address"
        },
        {
          "internalType": "address",
          "name": "to",
          "type": "address"
        },
        {
          "internalType": "uint256",
          "name": "amount",
          "type": "uint256"
        },
        {
          "internalType": "string",
          "name": "symbol",
          "type": "string"
        }
      ],
      "name": "saveTx",
      "outputs": [],
      "stateMutability": "nonpayable",
      "type": "function"
    },
    {
      "inputs": [
        {
          "internalType": "address",
          "name": "",
          "type": "address"
        }
      ],
      "name": "transactionCount",
      "outputs": [
        {
          "internalType": "uint256",
          "name": "",
          "type": "uint256"
        }
      ],
      "stateMutability": "view",
      "type": "function"
    },
    {
      "inputs": [
        {
          "internalType": "uint256",
          "name": "",
          "type": "uint256"
        }
      ],
      "name": "transactions",
      "outputs": [
        {
          "internalType": "address",
          "name": "from",
          "type": "address"
        },
        {
          "internalType": "address",
          "name": "reciever",
          "type": "address"
        },
        {
          "internalType": "uint256",
          "name": "timestamp",
          "type": "uint256"
        },
        {
          "internalType": "uint256",
          "name": "amount",
          "type": "uint256"
        }
      ],
      "stateMutability": "view",
      "type": "function"
    }
  ],
  "bytecode": "0x608060405234801561001057600080fd5b50611099806100206000396000f3fe60806040526004361061007b5760003560e01c8063739b53841161004e578063739b53841461014757806399be3375146101705780639ace38c2146101ad578063a628aeae146101ed5761007b565b80631b7b034514610080578063266d910d1461009c578063374fcb68146100dc5780633b44da4914610107575b600080fd5b61009a6004803603810190610095919061098b565b610216565b005b3480156100a857600080fd5b506100c360048036038101906100be919061095e565b61055f565b6040516100d39493929190610cc0565b60405180910390f35b3480156100e857600080fd5b506100f16105cf565b6040516100fe9190610d73565b60405180910390f35b34801561011357600080fd5b5061012e60048036038101906101299190610ac6565b6106ee565b60405161013e9493929190610cc0565b60405180910390f35b34801561015357600080fd5b5061016e60048036038101906101699190610a6a565b61076b565b005b34801561017c57600080fd5b506101976004803603810190610192919061095e565b6107bf565b6040516101a49190610d95565b60405180910390f35b3480156101b957600080fd5b506101d460048036038101906101cf9190610b06565b6107d7565b6040516101e49493929190610cc0565b60405180910390f35b3480156101f957600080fd5b50610214600480360381019061020f91906109e7565b610857565b005b8173ffffffffffffffffffffffffffffffffffffffff166108fc349081150290604051600060405180830381858888f1935050505015801561025c573d6000803e3d6000fd5b50600060405180608001604052803373ffffffffffffffffffffffffffffffffffffffff1681526020018473ffffffffffffffffffffffffffffffffffffffff168152602001428152602001348152509050600260003373ffffffffffffffffffffffffffffffffffffffff1673ffffffffffffffffffffffffffffffffffffffff16815260200190815260200160002060008154809291906102fe90610f52565b919050555080600160003373ffffffffffffffffffffffffffffffffffffffff1673ffffffffffffffffffffffffffffffffffffffff1681526020019081526020016000206000600260003373ffffffffffffffffffffffffffffffffffffffff1673ffffffffffffffffffffffffffffffffffffffff16815260200190815260200160002054815260200190815260200160002060008201518160000160006101000a81548173ffffffffffffffffffffffffffffffffffffffff021916908373ffffffffffffffffffffffffffffffffffffffff16021790555060208201518160010160006101000a81548173ffffffffffffffffffffffffffffffffffffffff021916908373ffffffffffffffffffffffffffffffffffffffff1602179055506040820151816002015560608201518160030155905050600381908060018154018082558091505060019003906000526020600020906004020160009091909190915060008201518160000160006101000a81548173ffffffffffffffffffffffffffffffffffffffff021916908373ffffffffffffffffffffffffffffffffffffffff16021790555060208201518160010160006101000a81548173ffffffffffffffffffffffffffffffffffffffff021916908373ffffffffffffffffffffffffffffffffffffffff160217905550604082015181600201556060820151816003015550503373ffffffffffffffffffffffffffffffffffffffff167fbd5b4120aa805bc3168c5cf77745ecdc9d54dbe3896a65c6b27e40aa5aae77c284348560405161055293929190610c82565b60405180910390a2505050565b60006020528060005260406000206000915090508060000160009054906101000a900473ffffffffffffffffffffffffffffffffffffffff16908060010160009054906101000a900473ffffffffffffffffffffffffffffffffffffffff16908060020154908060030154905084565b60606003805480602002602001604051908101604052809291908181526020016000905b828210156106e557838290600052602060002090600402016040518060800160405290816000820160009054906101000a900473ffffffffffffffffffffffffffffffffffffffff1673ffffffffffffffffffffffffffffffffffffffff1673ffffffffffffffffffffffffffffffffffffffff1681526020016001820160009054906101000a900473ffffffffffffffffffffffffffffffffffffffff1673ffffffffffffffffffffffffffffffffffffffff1673ffffffffffffffffffffffffffffffffffffffff16815260200160028201548152602001600382015481525050815260200190600101906105f3565b50505050905090565b6001602052816000526040600020602052806000526040600020600091509150508060000160009054906101000a900473ffffffffffffffffffffffffffffffffffffffff16908060010160009054906101000a900473ffffffffffffffffffffffffffffffffffffffff16908060020154908060030154905084565b3373ffffffffffffffffffffffffffffffffffffffff167f1c4014116cd39216627a9de9ba62e8f55ea87993d2ea6e01b2d90db98b7a054a83836040516107b3929190610d05565b60405180910390a25050565b60026020528060005260406000206000915090505481565b600381815481106107e757600080fd5b90600052602060002090600402016000915090508060000160009054906101000a900473ffffffffffffffffffffffffffffffffffffffff16908060010160009054906101000a900473ffffffffffffffffffffffffffffffffffffffff16908060020154908060030154905084565b8373ffffffffffffffffffffffffffffffffffffffff167fbd5b4120aa805bc3168c5cf77745ecdc9d54dbe3896a65c6b27e40aa5aae77c28484846040516108a193929190610d35565b60405180910390a250505050565b60006108c26108bd84610dd5565b610db0565b9050828152602081018484840111156108de576108dd610ffe565b5b6108e9848285610edf565b509392505050565b6000813590506109008161101e565b92915050565b60008135905061091581611035565b92915050565b600082601f8301126109305761092f610ff9565b5b81356109408482602086016108af565b91505092915050565b6000813590506109588161104c565b92915050565b60006020828403121561097457610973611008565b5b6000610982848285016108f1565b91505092915050565b600080604083850312156109a2576109a1611008565b5b60006109b085828601610906565b925050602083013567ffffffffffffffff8111156109d1576109d0611003565b5b6109dd8582860161091b565b9150509250929050565b60008060008060808587031215610a0157610a00611008565b5b6000610a0f878288016108f1565b9450506020610a20878288016108f1565b9350506040610a3187828801610949565b925050606085013567ffffffffffffffff811115610a5257610a51611003565b5b610a5e8782880161091b565b91505092959194509250565b60008060408385031215610a8157610a80611008565b5b6000610a8f858286016108f1565b925050602083013567ffffffffffffffff811115610ab057610aaf611003565b5b610abc8582860161091b565b9150509250929050565b60008060408385031215610add57610adc611008565b5b6000610aeb858286016108f1565b9250506020610afc85828601610949565b9150509250929050565b600060208284031215610b1c57610b1b611008565b5b6000610b2a84828501610949565b91505092915050565b6000610b3f8383610c0f565b60808301905092915050565b610b5481610ea9565b82525050565b610b6381610e5b565b82525050565b610b7281610e5b565b82525050565b6000610b8382610e16565b610b8d8185610e39565b9350610b9883610e06565b8060005b83811015610bc9578151610bb08882610b33565b9750610bbb83610e2c565b925050600181019050610b9c565b5085935050505092915050565b6000610be182610e21565b610beb8185610e4a565b9350610bfb818560208601610eee565b610c048161100d565b840191505092915050565b608082016000820151610c256000850182610b5a565b506020820151610c386020850182610b5a565b506040820151610c4b6040850182610c64565b506060820151610c5e6060850182610c64565b50505050565b610c6d81610e9f565b82525050565b610c7c81610e9f565b82525050565b6000606082019050610c976000830186610b4b565b610ca46020830185610c73565b8181036040830152610cb68184610bd6565b9050949350505050565b6000608082019050610cd56000830187610b69565b610ce26020830186610b69565b610cef6040830185610c73565b610cfc6060830184610c73565b95945050505050565b6000604082019050610d1a6000830185610b69565b8181036020830152610d2c8184610bd6565b90509392505050565b6000606082019050610d4a6000830186610b69565b610d576020830185610c73565b8181036040830152610d698184610bd6565b9050949350505050565b60006020820190508181036000830152610d8d8184610b78565b905092915050565b6000602082019050610daa6000830184610c73565b92915050565b6000610dba610dcb565b9050610dc68282610f21565b919050565b6000604051905090565b600067ffffffffffffffff821115610df057610def610fca565b5b610df98261100d565b9050602081019050919050565b6000819050602082019050919050565b600081519050919050565b600081519050919050565b6000602082019050919050565b600082825260208201905092915050565b600082825260208201905092915050565b6000610e6682610e7f565b9050919050565b6000610e7882610e7f565b9050919050565b600073ffffffffffffffffffffffffffffffffffffffff82169050919050565b6000819050919050565b6000610eb482610ebb565b9050919050565b6000610ec682610ecd565b9050919050565b6000610ed882610e7f565b9050919050565b82818337600083830152505050565b60005b83811015610f0c578082015181840152602081019050610ef1565b83811115610f1b576000848401525b50505050565b610f2a8261100d565b810181811067ffffffffffffffff82111715610f4957610f48610fca565b5b80604052505050565b6000610f5d82610e9f565b91507fffffffffffffffffffffffffffffffffffffffffffffffffffffffffffffffff821415610f9057610f8f610f9b565b5b600182019050919050565b7f4e487b7100000000000000000000000000000000000000000000000000000000600052601160045260246000fd5b7f4e487b7100000000000000000000000000000000000000000000000000000000600052604160045260246000fd5b600080fd5b600080fd5b600080fd5b600080fd5b6000601f19601f8301169050919050565b61102781610e5b565b811461103257600080fd5b50565b61103e81610e6d565b811461104957600080fd5b50565b61105581610e9f565b811461106057600080fd5b5056fea2646970667358221220bad6574b704e9de1ab761215d64e7e89a0e5f66645dfc6b9efb2ba6f0bd9726b64736f6c63430008070033",
  "linkReferences": {},
  "deployedLinkReferences": {}
}