{
  "_format": "hh-sol-artifact-1",
  "contractName": "Epocket",
  "sourceName": "contracts/Epocket.sol",
  "abi": [
    {
      "inputs": [],
      "stateMutability": "nonpayable",
      "type": "constructor"
    },
    {
      "inputs": [],
      "name": "getBalanceAccount",
      "outputs": [
        {
          "internalType": "uint256",
          "name": "",
          "type": "uint256"
        }
      ],
      "stateMutability": "view",
      "type": "function"
    },
    {
      "inputs": [],
      "name": "getMyTransactions",
      "outputs": [
        {
          "components": [
            {
              "internalType": "address",
              "name": "from",
              "type": "address"
            },
            {
              "internalType": "address",
              "name": "reciever",
              "type": "address"
            },
            {
              "internalType": "uint256",
              "name": "timestamp",
              "type": "uint256"
            },
            {
              "internalType": "string",
              "name": "name",
              "type": "string"
            },
            {
              "internalType": "uint256",
              "name": "amount",
              "type": "uint256"
            }
          ],
          "internalType": "struct Epocket.TransactionStruct",
          "name": "",
          "type": "tuple"
        }
      ],
      "stateMutability": "view",
      "type": "function"
    },
    {
      "inputs": [
        {
          "internalType": "address",
          "name": "",
          "type": "address"
        },
        {
          "internalType": "uint256",
          "name": "",
          "type": "uint256"
        }
      ],
      "name": "myTransactions",
      "outputs": [
        {
          "internalType": "address",
          "name": "from",
          "type": "address"
        },
        {
          "internalType": "address",
          "name": "reciever",
          "type": "address"
        },
        {
          "internalType": "uint256",
          "name": "timestamp",
          "type": "uint256"
        },
        {
          "internalType": "string",
          "name": "name",
          "type": "string"
        },
        {
          "internalType": "uint256",
          "name": "amount",
          "type": "uint256"
        }
      ],
      "stateMutability": "view",
      "type": "function"
    },
    {
      "inputs": [
        {
          "internalType": "address",
          "name": "",
          "type": "address"
        }
      ],
      "name": "s_addressToTransactionStruct",
      "outputs": [
        {
          "internalType": "address",
          "name": "from",
          "type": "address"
        },
        {
          "internalType": "address",
          "name": "reciever",
          "type": "address"
        },
        {
          "internalType": "uint256",
          "name": "timestamp",
          "type": "uint256"
        },
        {
          "internalType": "string",
          "name": "name",
          "type": "string"
        },
        {
          "internalType": "uint256",
          "name": "amount",
          "type": "uint256"
        }
      ],
      "stateMutability": "view",
      "type": "function"
    },
    {
      "inputs": [
        {
          "internalType": "address",
          "name": "",
          "type": "address"
        }
      ],
      "name": "transactionCount",
      "outputs": [
        {
          "internalType": "uint256",
          "name": "",
          "type": "uint256"
        }
      ],
      "stateMutability": "view",
      "type": "function"
    },
    {
      "inputs": [
        {
          "internalType": "uint256",
          "name": "",
          "type": "uint256"
        }
      ],
      "name": "transactions",
      "outputs": [
        {
          "internalType": "address",
          "name": "from",
          "type": "address"
        },
        {
          "internalType": "address",
          "name": "reciever",
          "type": "address"
        },
        {
          "internalType": "uint256",
          "name": "timestamp",
          "type": "uint256"
        },
        {
          "internalType": "string",
          "name": "name",
          "type": "string"
        },
        {
          "internalType": "uint256",
          "name": "amount",
          "type": "uint256"
        }
      ],
      "stateMutability": "view",
      "type": "function"
    },
    {
      "inputs": [
        {
          "internalType": "address payable",
          "name": "_reciever",
          "type": "address"
        },
        {
          "internalType": "string",
          "name": "_name",
          "type": "string"
        }
      ],
      "name": "transferFund",
      "outputs": [],
      "stateMutability": "payable",
      "type": "function"
    }
  ],
  "bytecode": "0x60a060405234801561001057600080fd5b503373ffffffffffffffffffffffffffffffffffffffff1660808173ffffffffffffffffffffffffffffffffffffffff1660601b8152505060805160601c611336610066600039600061045501526113366000f3fe6080604052600436106100705760003560e01c806397e4ca701161004e57806397e4ca701461011357806399be33751461013e5780639ace38c21461017b578063abf038d0146101bc57610070565b8063266d910d146100755780633b44da49146100b657806384d8f83d146100f7575b600080fd5b34801561008157600080fd5b5061009c60048036038101906100979190610bf9565b6101e7565b6040516100ad959493929190610e6e565b60405180910390f35b3480156100c257600080fd5b506100dd60048036038101906100d89190610c82565b6102e5565b6040516100ee959493929190610e6e565b60405180910390f35b610111600480360381019061010c9190610c26565b6103f0565b005b34801561011f57600080fd5b50610128610693565b6040516101359190610ee8565b60405180910390f35b34801561014a57600080fd5b5061016560048036038101906101609190610bf9565b61088c565b6040516101729190610f0a565b60405180910390f35b34801561018757600080fd5b506101a2600480360381019061019d9190610cc2565b6108a4565b6040516101b3959493929190610e6e565b60405180910390f35b3480156101c857600080fd5b506101d16109b2565b6040516101de9190610f0a565b60405180910390f35b60006020528060005260406000206000915090508060000160009054906101000a900473ffffffffffffffffffffffffffffffffffffffff16908060010160009054906101000a900473ffffffffffffffffffffffffffffffffffffffff169080600201549080600301805461025c90611102565b80601f016020809104026020016040519081016040528092919081815260200182805461028890611102565b80156102d55780601f106102aa576101008083540402835291602001916102d5565b820191906000526020600020905b8154815290600101906020018083116102b857829003601f168201915b5050505050908060040154905085565b6001602052816000526040600020602052806000526040600020600091509150508060000160009054906101000a900473ffffffffffffffffffffffffffffffffffffffff16908060010160009054906101000a900473ffffffffffffffffffffffffffffffffffffffff169080600201549080600301805461036790611102565b80601f016020809104026020016040519081016040528092919081815260200182805461039390611102565b80156103e05780601f106103b5576101008083540402835291602001916103e0565b820191906000526020600020905b8154815290600101906020018083116103c357829003601f168201915b5050505050908060040154905085565b60003411610433576040517f08c379a000000000000000000000000000000000000000000000000000000000815260040161042a90610ec8565b60405180910390fd5b600060646005346104449190610fe4565b61044e9190610fb3565b905061047a7f0000000000000000000000000000000000000000000000000000000000000000826109d1565b61048f83823461048a919061103e565b6109d1565b60006040518060a001604052803373ffffffffffffffffffffffffffffffffffffffff1681526020018573ffffffffffffffffffffffffffffffffffffffff168152602001428152602001848152602001348152509050600260003373ffffffffffffffffffffffffffffffffffffffff1673ffffffffffffffffffffffffffffffffffffffff168152602001908152602001600020600081548092919061053690611165565b919050555080600160003373ffffffffffffffffffffffffffffffffffffffff1673ffffffffffffffffffffffffffffffffffffffff1681526020019081526020016000206000600260003373ffffffffffffffffffffffffffffffffffffffff1673ffffffffffffffffffffffffffffffffffffffff16815260200190815260200160002054815260200190815260200160002060008201518160000160006101000a81548173ffffffffffffffffffffffffffffffffffffffff021916908373ffffffffffffffffffffffffffffffffffffffff16021790555060208201518160010160006101000a81548173ffffffffffffffffffffffffffffffffffffffff021916908373ffffffffffffffffffffffffffffffffffffffff16021790555060408201518160020155606082015181600301908051906020019061067f929190610a4c565b506080820151816004015590505050505050565b61069b610ad2565b600160003373ffffffffffffffffffffffffffffffffffffffff1673ffffffffffffffffffffffffffffffffffffffff1681526020019081526020016000206000600260003373ffffffffffffffffffffffffffffffffffffffff1673ffffffffffffffffffffffffffffffffffffffff1681526020019081526020016000205481526020019081526020016000206040518060a00160405290816000820160009054906101000a900473ffffffffffffffffffffffffffffffffffffffff1673ffffffffffffffffffffffffffffffffffffffff1673ffffffffffffffffffffffffffffffffffffffff1681526020016001820160009054906101000a900473ffffffffffffffffffffffffffffffffffffffff1673ffffffffffffffffffffffffffffffffffffffff1673ffffffffffffffffffffffffffffffffffffffff168152602001600282015481526020016003820180546107fb90611102565b80601f016020809104026020016040519081016040528092919081815260200182805461082790611102565b80156108745780601f1061084957610100808354040283529160200191610874565b820191906000526020600020905b81548152906001019060200180831161085757829003601f168201915b50505050508152602001600482015481525050905090565b60026020528060005260406000206000915090505481565b600381815481106108b457600080fd5b90600052602060002090600502016000915090508060000160009054906101000a900473ffffffffffffffffffffffffffffffffffffffff16908060010160009054906101000a900473ffffffffffffffffffffffffffffffffffffffff169080600201549080600301805461092990611102565b80601f016020809104026020016040519081016040528092919081815260200182805461095590611102565b80156109a25780601f10610977576101008083540402835291602001916109a2565b820191906000526020600020905b81548152906001019060200180831161098557829003601f168201915b5050505050908060040154905085565b60003373ffffffffffffffffffffffffffffffffffffffff1631905090565b60008273ffffffffffffffffffffffffffffffffffffffff16826040516109f790610e59565b60006040518083038185875af1925050503d8060008114610a34576040519150601f19603f3d011682016040523d82523d6000602084013e610a39565b606091505b5050905080610a4757600080fd5b505050565b828054610a5890611102565b90600052602060002090601f016020900481019282610a7a5760008555610ac1565b82601f10610a9357805160ff1916838001178555610ac1565b82800160010185558215610ac1579182015b82811115610ac0578251825591602001919060010190610aa5565b5b509050610ace9190610b2d565b5090565b6040518060a00160405280600073ffffffffffffffffffffffffffffffffffffffff168152602001600073ffffffffffffffffffffffffffffffffffffffff1681526020016000815260200160608152602001600081525090565b5b80821115610b46576000816000905550600101610b2e565b5090565b6000610b5d610b5884610f4a565b610f25565b905082815260208101848484011115610b7957610b7861126f565b5b610b848482856110c0565b509392505050565b600081359050610b9b816112bb565b92915050565b600081359050610bb0816112d2565b92915050565b600082601f830112610bcb57610bca61126a565b5b8135610bdb848260208601610b4a565b91505092915050565b600081359050610bf3816112e9565b92915050565b600060208284031215610c0f57610c0e611279565b5b6000610c1d84828501610b8c565b91505092915050565b60008060408385031215610c3d57610c3c611279565b5b6000610c4b85828601610ba1565b925050602083013567ffffffffffffffff811115610c6c57610c6b611274565b5b610c7885828601610bb6565b9150509250929050565b60008060408385031215610c9957610c98611279565b5b6000610ca785828601610b8c565b9250506020610cb885828601610be4565b9150509250929050565b600060208284031215610cd857610cd7611279565b5b6000610ce684828501610be4565b91505092915050565b610cf881611072565b82525050565b610d0781611072565b82525050565b6000610d1882610f7b565b610d228185610f91565b9350610d328185602086016110cf565b610d3b8161127e565b840191505092915050565b6000610d5182610f7b565b610d5b8185610fa2565b9350610d6b8185602086016110cf565b610d748161127e565b840191505092915050565b6000610d8c601483610fa2565b9150610d978261128f565b602082019050919050565b6000610daf600083610f86565b9150610dba826112b8565b600082019050919050565b600060a083016000830151610ddd6000860182610cef565b506020830151610df06020860182610cef565b506040830151610e036040860182610e3b565b5060608301518482036060860152610e1b8282610d0d565b9150506080830151610e306080860182610e3b565b508091505092915050565b610e44816110b6565b82525050565b610e53816110b6565b82525050565b6000610e6482610da2565b9150819050919050565b600060a082019050610e836000830188610cfe565b610e906020830187610cfe565b610e9d6040830186610e4a565b8181036060830152610eaf8185610d46565b9050610ebe6080830184610e4a565b9695505050505050565b60006020820190508181036000830152610ee181610d7f565b9050919050565b60006020820190508181036000830152610f028184610dc5565b905092915050565b6000602082019050610f1f6000830184610e4a565b92915050565b6000610f2f610f40565b9050610f3b8282611134565b919050565b6000604051905090565b600067ffffffffffffffff821115610f6557610f6461123b565b5b610f6e8261127e565b9050602081019050919050565b600081519050919050565b600081905092915050565b600082825260208201905092915050565b600082825260208201905092915050565b6000610fbe826110b6565b9150610fc9836110b6565b925082610fd957610fd86111dd565b5b828204905092915050565b6000610fef826110b6565b9150610ffa836110b6565b9250817fffffffffffffffffffffffffffffffffffffffffffffffffffffffffffffffff0483118215151615611033576110326111ae565b5b828202905092915050565b6000611049826110b6565b9150611054836110b6565b925082821015611067576110666111ae565b5b828203905092915050565b600061107d82611096565b9050919050565b600061108f82611096565b9050919050565b600073ffffffffffffffffffffffffffffffffffffffff82169050919050565b6000819050919050565b82818337600083830152505050565b60005b838110156110ed5780820151818401526020810190506110d2565b838111156110fc576000848401525b50505050565b6000600282049050600182168061111a57607f821691505b6020821081141561112e5761112d61120c565b5b50919050565b61113d8261127e565b810181811067ffffffffffffffff8211171561115c5761115b61123b565b5b80604052505050565b6000611170826110b6565b91507fffffffffffffffffffffffffffffffffffffffffffffffffffffffffffffffff8214156111a3576111a26111ae565b5b600182019050919050565b7f4e487b7100000000000000000000000000000000000000000000000000000000600052601160045260246000fd5b7f4e487b7100000000000000000000000000000000000000000000000000000000600052601260045260246000fd5b7f4e487b7100000000000000000000000000000000000000000000000000000000600052602260045260246000fd5b7f4e487b7100000000000000000000000000000000000000000000000000000000600052604160045260246000fd5b600080fd5b600080fd5b600080fd5b600080fd5b6000601f19601f8301169050919050565b7f596f752063616e27742073656e64203020455448000000000000000000000000600082015250565b50565b6112c481611072565b81146112cf57600080fd5b50565b6112db81611084565b81146112e657600080fd5b50565b6112f2816110b6565b81146112fd57600080fd5b5056fea26469706673582212207ba8c518b43f051a364de8e3c829a046e80db61cb8e24e5f044c7cdcbfbfaf1964736f6c63430008070033",
  "linkReferences": {},
  "deployedLinkReferences": {}
}