{
  "_format": "hh-sol-artifact-1",
  "contractName": "Epocket",
  "sourceName": "contracts/Epocket.sol",
  "abi": [
    {
      "inputs": [],
      "stateMutability": "nonpayable",
      "type": "constructor"
    },
    {
      "inputs": [],
      "name": "getAllContracTxs",
      "outputs": [
        {
          "components": [
            {
              "internalType": "address",
              "name": "from",
              "type": "address"
            },
            {
              "internalType": "address",
              "name": "reciever",
              "type": "address"
            },
            {
              "internalType": "uint256",
              "name": "timestamp",
              "type": "uint256"
            },
            {
              "internalType": "string",
              "name": "name",
              "type": "string"
            },
            {
              "internalType": "uint256",
              "name": "amount",
              "type": "uint256"
            }
          ],
          "internalType": "struct Epocket.TransactionStruct[]",
          "name": "",
          "type": "tuple[]"
        }
      ],
      "stateMutability": "view",
      "type": "function"
    },
    {
      "inputs": [],
      "name": "getBalanceAccount",
      "outputs": [
        {
          "internalType": "uint256",
          "name": "",
          "type": "uint256"
        }
      ],
      "stateMutability": "view",
      "type": "function"
    },
    {
      "inputs": [
        {
          "internalType": "address",
          "name": "",
          "type": "address"
        },
        {
          "internalType": "uint256",
          "name": "",
          "type": "uint256"
        }
      ],
      "name": "myTransactions",
      "outputs": [
        {
          "internalType": "address",
          "name": "from",
          "type": "address"
        },
        {
          "internalType": "address",
          "name": "reciever",
          "type": "address"
        },
        {
          "internalType": "uint256",
          "name": "timestamp",
          "type": "uint256"
        },
        {
          "internalType": "string",
          "name": "name",
          "type": "string"
        },
        {
          "internalType": "uint256",
          "name": "amount",
          "type": "uint256"
        }
      ],
      "stateMutability": "view",
      "type": "function"
    },
    {
      "inputs": [
        {
          "internalType": "address",
          "name": "",
          "type": "address"
        }
      ],
      "name": "s_addressToTransactionStruct",
      "outputs": [
        {
          "internalType": "address",
          "name": "from",
          "type": "address"
        },
        {
          "internalType": "address",
          "name": "reciever",
          "type": "address"
        },
        {
          "internalType": "uint256",
          "name": "timestamp",
          "type": "uint256"
        },
        {
          "internalType": "string",
          "name": "name",
          "type": "string"
        },
        {
          "internalType": "uint256",
          "name": "amount",
          "type": "uint256"
        }
      ],
      "stateMutability": "view",
      "type": "function"
    },
    {
      "inputs": [
        {
          "internalType": "address",
          "name": "",
          "type": "address"
        }
      ],
      "name": "transactionCount",
      "outputs": [
        {
          "internalType": "uint256",
          "name": "",
          "type": "uint256"
        }
      ],
      "stateMutability": "view",
      "type": "function"
    },
    {
      "inputs": [
        {
          "internalType": "uint256",
          "name": "",
          "type": "uint256"
        }
      ],
      "name": "transactions",
      "outputs": [
        {
          "internalType": "address",
          "name": "from",
          "type": "address"
        },
        {
          "internalType": "address",
          "name": "reciever",
          "type": "address"
        },
        {
          "internalType": "uint256",
          "name": "timestamp",
          "type": "uint256"
        },
        {
          "internalType": "string",
          "name": "name",
          "type": "string"
        },
        {
          "internalType": "uint256",
          "name": "amount",
          "type": "uint256"
        }
      ],
      "stateMutability": "view",
      "type": "function"
    },
    {
      "inputs": [
        {
          "internalType": "address payable",
          "name": "_reciever",
          "type": "address"
        },
        {
          "internalType": "string",
          "name": "_name",
          "type": "string"
        }
      ],
      "name": "transferFund",
      "outputs": [],
      "stateMutability": "payable",
      "type": "function"
    }
  ],
  "bytecode": "0x60a060405234801561001057600080fd5b503373ffffffffffffffffffffffffffffffffffffffff1660808173ffffffffffffffffffffffffffffffffffffffff1660601b8152505060805160601c611442610066600039600061060601526114426000f3fe6080604052600436106100705760003560e01c806384d8f83d1161004e57806384d8f83d1461012257806399be33751461013e5780639ace38c21461017b578063abf038d0146101bc57610070565b8063266d910d14610075578063374fcb68146100b65780633b44da49146100e1575b600080fd5b34801561008157600080fd5b5061009c60048036038101906100979190610c43565b6101e7565b6040516100ad959493929190610f41565b60405180910390f35b3480156100c257600080fd5b506100cb6102e5565b6040516100d89190610f9b565b60405180910390f35b3480156100ed57600080fd5b5061010860048036038101906101039190610ccc565b610496565b604051610119959493929190610f41565b60405180910390f35b61013c60048036038101906101379190610c70565b6105a1565b005b34801561014a57600080fd5b5061016560048036038101906101609190610c43565b610931565b6040516101729190610fdd565b60405180910390f35b34801561018757600080fd5b506101a2600480360381019061019d9190610d0c565b610949565b6040516101b3959493929190610f41565b60405180910390f35b3480156101c857600080fd5b506101d1610a57565b6040516101de9190610fdd565b60405180910390f35b60006020528060005260406000206000915090508060000160009054906101000a900473ffffffffffffffffffffffffffffffffffffffff16908060010160009054906101000a900473ffffffffffffffffffffffffffffffffffffffff169080600201549080600301805461025c9061120e565b80601f01602080910402602001604051908101604052809291908181526020018280546102889061120e565b80156102d55780601f106102aa576101008083540402835291602001916102d5565b820191906000526020600020905b8154815290600101906020018083116102b857829003601f168201915b5050505050908060040154905085565b60606003805480602002602001604051908101604052809291908181526020016000905b8282101561048d57838290600052602060002090600502016040518060a00160405290816000820160009054906101000a900473ffffffffffffffffffffffffffffffffffffffff1673ffffffffffffffffffffffffffffffffffffffff1673ffffffffffffffffffffffffffffffffffffffff1681526020016001820160009054906101000a900473ffffffffffffffffffffffffffffffffffffffff1673ffffffffffffffffffffffffffffffffffffffff1673ffffffffffffffffffffffffffffffffffffffff168152602001600282015481526020016003820180546103f29061120e565b80601f016020809104026020016040519081016040528092919081815260200182805461041e9061120e565b801561046b5780601f106104405761010080835404028352916020019161046b565b820191906000526020600020905b81548152906001019060200180831161044e57829003601f168201915b5050505050815260200160048201548152505081526020019060010190610309565b50505050905090565b6001602052816000526040600020602052806000526040600020600091509150508060000160009054906101000a900473ffffffffffffffffffffffffffffffffffffffff16908060010160009054906101000a900473ffffffffffffffffffffffffffffffffffffffff16908060020154908060030180546105189061120e565b80601f01602080910402602001604051908101604052809291908181526020018280546105449061120e565b80156105915780601f1061056657610100808354040283529160200191610591565b820191906000526020600020905b81548152906001019060200180831161057457829003601f168201915b5050505050908060040154905085565b600034116105e4576040517f08c379a00000000000000000000000000000000000000000000000000000000081526004016105db90610fbd565b60405180910390fd5b600060646005346105f591906110f0565b6105ff91906110bf565b905061062b7f000000000000000000000000000000000000000000000000000000000000000082610a76565b61064083823461063b919061114a565b610a76565b60006040518060a001604052803373ffffffffffffffffffffffffffffffffffffffff1681526020018573ffffffffffffffffffffffffffffffffffffffff168152602001428152602001848152602001348152509050600260003373ffffffffffffffffffffffffffffffffffffffff1673ffffffffffffffffffffffffffffffffffffffff16815260200190815260200160002060008154809291906106e790611271565b919050555080600160003373ffffffffffffffffffffffffffffffffffffffff1673ffffffffffffffffffffffffffffffffffffffff1681526020019081526020016000206000600260003373ffffffffffffffffffffffffffffffffffffffff1673ffffffffffffffffffffffffffffffffffffffff16815260200190815260200160002054815260200190815260200160002060008201518160000160006101000a81548173ffffffffffffffffffffffffffffffffffffffff021916908373ffffffffffffffffffffffffffffffffffffffff16021790555060208201518160010160006101000a81548173ffffffffffffffffffffffffffffffffffffffff021916908373ffffffffffffffffffffffffffffffffffffffff160217905550604082015181600201556060820151816003019080519060200190610830929190610af1565b5060808201518160040155905050600381908060018154018082558091505060019003906000526020600020906005020160009091909190915060008201518160000160006101000a81548173ffffffffffffffffffffffffffffffffffffffff021916908373ffffffffffffffffffffffffffffffffffffffff16021790555060208201518160010160006101000a81548173ffffffffffffffffffffffffffffffffffffffff021916908373ffffffffffffffffffffffffffffffffffffffff16021790555060408201518160020155606082015181600301908051906020019061091e929190610af1565b5060808201518160040155505050505050565b60026020528060005260406000206000915090505481565b6003818154811061095957600080fd5b90600052602060002090600502016000915090508060000160009054906101000a900473ffffffffffffffffffffffffffffffffffffffff16908060010160009054906101000a900473ffffffffffffffffffffffffffffffffffffffff16908060020154908060030180546109ce9061120e565b80601f01602080910402602001604051908101604052809291908181526020018280546109fa9061120e565b8015610a475780601f10610a1c57610100808354040283529160200191610a47565b820191906000526020600020905b815481529060010190602001808311610a2a57829003601f168201915b5050505050908060040154905085565b60003373ffffffffffffffffffffffffffffffffffffffff1631905090565b60008273ffffffffffffffffffffffffffffffffffffffff1682604051610a9c90610f2c565b60006040518083038185875af1925050503d8060008114610ad9576040519150601f19603f3d011682016040523d82523d6000602084013e610ade565b606091505b5050905080610aec57600080fd5b505050565b828054610afd9061120e565b90600052602060002090601f016020900481019282610b1f5760008555610b66565b82601f10610b3857805160ff1916838001178555610b66565b82800160010185558215610b66579182015b82811115610b65578251825591602001919060010190610b4a565b5b509050610b739190610b77565b5090565b5b80821115610b90576000816000905550600101610b78565b5090565b6000610ba7610ba28461101d565b610ff8565b905082815260208101848484011115610bc357610bc261137b565b5b610bce8482856111cc565b509392505050565b600081359050610be5816113c7565b92915050565b600081359050610bfa816113de565b92915050565b600082601f830112610c1557610c14611376565b5b8135610c25848260208601610b94565b91505092915050565b600081359050610c3d816113f5565b92915050565b600060208284031215610c5957610c58611385565b5b6000610c6784828501610bd6565b91505092915050565b60008060408385031215610c8757610c86611385565b5b6000610c9585828601610beb565b925050602083013567ffffffffffffffff811115610cb657610cb5611380565b5b610cc285828601610c00565b9150509250929050565b60008060408385031215610ce357610ce2611385565b5b6000610cf185828601610bd6565b9250506020610d0285828601610c2e565b9150509250929050565b600060208284031215610d2257610d21611385565b5b6000610d3084828501610c2e565b91505092915050565b6000610d458383610e98565b905092915050565b610d568161117e565b82525050565b610d658161117e565b82525050565b6000610d768261105e565b610d808185611081565b935083602082028501610d928561104e565b8060005b85811015610dce5784840389528151610daf8582610d39565b9450610dba83611074565b925060208a01995050600181019050610d96565b50829750879550505050505092915050565b6000610deb82611069565b610df5818561109d565b9350610e058185602086016111db565b610e0e8161138a565b840191505092915050565b6000610e2482611069565b610e2e81856110ae565b9350610e3e8185602086016111db565b610e478161138a565b840191505092915050565b6000610e5f6014836110ae565b9150610e6a8261139b565b602082019050919050565b6000610e82600083611092565b9150610e8d826113c4565b600082019050919050565b600060a083016000830151610eb06000860182610d4d565b506020830151610ec36020860182610d4d565b506040830151610ed66040860182610f0e565b5060608301518482036060860152610eee8282610de0565b9150506080830151610f036080860182610f0e565b508091505092915050565b610f17816111c2565b82525050565b610f26816111c2565b82525050565b6000610f3782610e75565b9150819050919050565b600060a082019050610f566000830188610d5c565b610f636020830187610d5c565b610f706040830186610f1d565b8181036060830152610f828185610e19565b9050610f916080830184610f1d565b9695505050505050565b60006020820190508181036000830152610fb58184610d6b565b905092915050565b60006020820190508181036000830152610fd681610e52565b9050919050565b6000602082019050610ff26000830184610f1d565b92915050565b6000611002611013565b905061100e8282611240565b919050565b6000604051905090565b600067ffffffffffffffff82111561103857611037611347565b5b6110418261138a565b9050602081019050919050565b6000819050602082019050919050565b600081519050919050565b600081519050919050565b6000602082019050919050565b600082825260208201905092915050565b600081905092915050565b600082825260208201905092915050565b600082825260208201905092915050565b60006110ca826111c2565b91506110d5836111c2565b9250826110e5576110e46112e9565b5b828204905092915050565b60006110fb826111c2565b9150611106836111c2565b9250817fffffffffffffffffffffffffffffffffffffffffffffffffffffffffffffffff048311821515161561113f5761113e6112ba565b5b828202905092915050565b6000611155826111c2565b9150611160836111c2565b925082821015611173576111726112ba565b5b828203905092915050565b6000611189826111a2565b9050919050565b600061119b826111a2565b9050919050565b600073ffffffffffffffffffffffffffffffffffffffff82169050919050565b6000819050919050565b82818337600083830152505050565b60005b838110156111f95780820151818401526020810190506111de565b83811115611208576000848401525b50505050565b6000600282049050600182168061122657607f821691505b6020821081141561123a57611239611318565b5b50919050565b6112498261138a565b810181811067ffffffffffffffff8211171561126857611267611347565b5b80604052505050565b600061127c826111c2565b91507fffffffffffffffffffffffffffffffffffffffffffffffffffffffffffffffff8214156112af576112ae6112ba565b5b600182019050919050565b7f4e487b7100000000000000000000000000000000000000000000000000000000600052601160045260246000fd5b7f4e487b7100000000000000000000000000000000000000000000000000000000600052601260045260246000fd5b7f4e487b7100000000000000000000000000000000000000000000000000000000600052602260045260246000fd5b7f4e487b7100000000000000000000000000000000000000000000000000000000600052604160045260246000fd5b600080fd5b600080fd5b600080fd5b600080fd5b6000601f19601f8301169050919050565b7f596f752063616e27742073656e64203020455448000000000000000000000000600082015250565b50565b6113d08161117e565b81146113db57600080fd5b50565b6113e781611190565b81146113f257600080fd5b50565b6113fe816111c2565b811461140957600080fd5b5056fea264697066735822122012a28769c86ffaa7a1ff861763a14108931387e3c4a4f8b3b46c16502378e45564736f6c63430008070033",
  "linkReferences": {},
  "deployedLinkReferences": {}
}